{
  "address": "0xc6C1E80dCd0fe9385Ab6Feb075BbDc1DE68391B7",
  "abi": [
    {
      "inputs": [
        {
          "internalType": "address payable",
          "name": "diceGameAddress",
          "type": "address"
        }
      ],
      "stateMutability": "nonpayable",
      "type": "constructor"
    },
    {
      "anonymous": false,
      "inputs": [
        {
          "indexed": true,
          "internalType": "address",
          "name": "previousOwner",
          "type": "address"
        },
        {
          "indexed": true,
          "internalType": "address",
          "name": "newOwner",
          "type": "address"
        }
      ],
      "name": "OwnershipTransferred",
      "type": "event"
    },
    {
      "inputs": [],
      "name": "diceGame",
      "outputs": [
        {
          "internalType": "contract DiceGame",
          "name": "",
          "type": "address"
        }
      ],
      "stateMutability": "view",
      "type": "function"
    },
    {
      "inputs": [],
      "name": "owner",
      "outputs": [
        {
          "internalType": "address",
          "name": "",
          "type": "address"
        }
      ],
      "stateMutability": "view",
      "type": "function"
    },
    {
      "inputs": [],
      "name": "renounceOwnership",
      "outputs": [],
      "stateMutability": "nonpayable",
      "type": "function"
    },
    {
      "inputs": [],
      "name": "riggedRoll",
      "outputs": [],
      "stateMutability": "nonpayable",
      "type": "function"
    },
    {
      "inputs": [
        {
          "internalType": "address",
          "name": "newOwner",
          "type": "address"
        }
      ],
      "name": "transferOwnership",
      "outputs": [],
      "stateMutability": "nonpayable",
      "type": "function"
    },
    {
      "inputs": [
        {
          "internalType": "address",
          "name": "_addr",
          "type": "address"
        },
        {
          "internalType": "uint256",
          "name": "_amount",
          "type": "uint256"
        }
      ],
      "name": "withdraw",
      "outputs": [],
      "stateMutability": "nonpayable",
      "type": "function"
    },
    {
      "stateMutability": "payable",
      "type": "receive"
    }
  ],
  "transactionHash": "0xf1bf57a50408f886724a2264466b72fa1bbc318ed0e7f3f960ed53dde6e69ac0",
  "args": [
    "0x13894Ed59C5fdC2A2144f65a3d06BE22C8D36186"
  ],
  "numDeployments": 1,
  "solcInputHash": "b9a75712269d893e69c00af9f6d55dcd",
  "bytecode": "0x608060405234801561001057600080fd5b506040516107dc3803806107dc83398101604081905261002f916100ad565b6100383361005d565b600180546001600160a01b0319166001600160a01b03929092169190911790556100dd565b600080546001600160a01b038381166001600160a01b0319831681178455604051919092169283917f8be0079c531659141344cd1fd0a4f28419497f9722a3daafe3b4186f6b6457e09190a35050565b6000602082840312156100bf57600080fd5b81516001600160a01b03811681146100d657600080fd5b9392505050565b6106f0806100ec6000396000f3fe6080604052600436106100595760003560e01c80636b5e97f814610065578063715018a61461007c5780638da5cb5b146100915780638e288fd1146100c7578063f2fde38b146100e7578063f3fef3a31461010757600080fd5b3661006057005b600080fd5b34801561007157600080fd5b5061007a610127565b005b34801561008857600080fd5b5061007a61035c565b34801561009d57600080fd5b506000546001600160a01b03165b6040516001600160a01b03909116815260200160405180910390f35b3480156100d357600080fd5b506001546100ab906001600160a01b031681565b3480156100f357600080fd5b5061007a6101023660046105a9565b610370565b34801561011357600080fd5b5061007a6101223660046105cb565b6103e9565b66071afd498d00004710156101a95760405162461bcd60e51b815260206004820152603f60248201527f456c20636f6e747261746f206e6f207469656e6520666f6e646f73207061726160448201527f207472616e7366657269722061204469636547616d6520636f6e74726163740060648201526084015b60405180910390fd5b60006101b66001436105f5565b60015460408051924060208085018290526bffffffffffffffffffffffff19606085901b1685840152640100000000600160c01b0393901b9290921663affed0e017901b60548301529150600090606c0160408051601f1981840301815291905280516020909101209050600061022e60108361061c565b9050610278604051806040016040528060018152602001600960f81b8152506040518060400160405280600c81526020016b2934b3b3b2b2102937b6361d60a11b81525083610477565b600581116102f557600160009054906101000a90046001600160a01b03166001600160a01b0316637d789dee66071afd498d00006040518263ffffffff1660e01b81526004016000604051808303818588803b1580156102d757600080fd5b505af11580156102eb573d6000803e3d6000fd5b5050505050505050565b60405162461bcd60e51b815260206004820152603160248201527f4e6f2073652070756564652067616e617220656e2065737465207469726f2e2060448201527024b73a32b73a3290323290373ab2bb379760791b60648201526084016101a0565b505050565b6103646104be565b61036e6000610518565b565b6103786104be565b6001600160a01b0381166103dd5760405162461bcd60e51b815260206004820152602660248201527f4f776e61626c653a206e6577206f776e657220697320746865207a65726f206160448201526564647265737360d01b60648201526084016101a0565b6103e681610518565b50565b6103f16104be565b600047116104415760405162461bcd60e51b815260206004820152601960248201527f4e6f20686179207072656d696f2071756520726574697261720000000000000060448201526064016101a0565b6040516001600160a01b0383169082156108fc029083906000818181858888f19350505050158015610357573d6000803e3d6000fd5b61035783838360405160240161048f93929190610684565b60408051601f198184030181529190526020810180516001600160e01b0316635821efa160e01b179052610568565b6000546001600160a01b0316331461036e5760405162461bcd60e51b815260206004820181905260248201527f4f776e61626c653a2063616c6c6572206973206e6f7420746865206f776e657260448201526064016101a0565b600080546001600160a01b038381166001600160a01b0319831681178455604051919092169283917f8be0079c531659141344cd1fd0a4f28419497f9722a3daafe3b4186f6b6457e09190a35050565b6103e68160006a636f6e736f6c652e6c6f679050600080835160208501845afa505050565b80356001600160a01b03811681146105a457600080fd5b919050565b6000602082840312156105bb57600080fd5b6105c48261058d565b9392505050565b600080604083850312156105de57600080fd5b6105e78361058d565b946020939093013593505050565b8181038181111561061657634e487b7160e01b600052601160045260246000fd5b92915050565b60008261063957634e487b7160e01b600052601260045260246000fd5b500690565b6000815180845260005b8181101561066457602081850181015186830182015201610648565b506000602082860101526020601f19601f83011685010191505092915050565b606081526000610697606083018661063e565b82810360208401526106a9818661063e565b91505082604083015294935050505056fea2646970667358221220e43cab1aa914091320f301c86964e635b1c3abb7f4e333378d94cc928c9b05b864736f6c63430008110033",
  "devdoc": {
    "kind": "dev",
    "methods": {
      "owner()": {
        "details": "Returns the address of the current owner."
      },
      "renounceOwnership()": {
        "details": "Leaves the contract without owner. It will not be possible to call `onlyOwner` functions anymore. Can only be called by the current owner. NOTE: Renouncing ownership will leave the contract without an owner, thereby removing any functionality that is only available to the owner."
      },
      "transferOwnership(address)": {
        "details": "Transfers ownership of the contract to a new account (`newOwner`). Can only be called by the current owner."
      }
    },
    "version": 1
  },
  "userdoc": {
    "kind": "user",
    "methods": {},
    "version": 1
  },
  "storageLayout": {
    "storage": [
      {
        "astId": 7,
        "contract": "contracts/RiggedRoll.sol:RiggedRoll",
        "label": "_owner",
        "offset": 0,
        "slot": "0",
        "type": "t_address"
      },
      {
        "astId": 308,
        "contract": "contracts/RiggedRoll.sol:RiggedRoll",
        "label": "diceGame",
        "offset": 0,
        "slot": "1",
        "type": "t_contract(DiceGame)298"
      }
    ],
    "types": {
      "t_address": {
        "encoding": "inplace",
        "label": "address",
        "numberOfBytes": "20"
      },
      "t_contract(DiceGame)298": {
        "encoding": "inplace",
        "label": "contract DiceGame",
        "numberOfBytes": "20"
      }
    }
  }
}